:0A093E000001020203030404050592
:10033300E4F513F512F511F510C203C200C202C2AF
:100343000112049F7E077F008E238F24752B077570
:100353002C1275210775221C752907752A4A752DDC
:1003630007752E78EE54C0700302043875140075B7
:1003730015808E168F17C3749A9FFF74079ECF2420
:1003830002CF3400FEE48F0F8E0EF50DF50CF50B46
:10039300F50AF509F508AF0FAE0EAD0DAC0CAB0BBE
:1003A300AA0AA909A808C31209225037E517250B81
:1003B300F582E516350AF583E0FFE515250BF58291
:1003C300E514350AF583EFF0E4FAF9F8E50B2401B7
:1003D300F50BEA350AF50AE93509F509E83508F5B3
:1003E3000880B385142385152474002480FF7407C3
:1003F30034FFFEC3E52C9FF52CE52B9EF52BC3E5BF
:10040300269FF526E5259EF525C3E5289FF528E5D6
:10041300279EF527C3E5229FF522E5219EF521C3FB
:10042300E52A9FF52AE5299EF529C3E52E9FF52E9A
:10043300E52D9EF52DD2E843D82090E668E04409E7
:10044300F090E65CE0443DF0D2AF90E680E020E13E
:1004530005D20412080F90E680E054F7F0538EF8AB
:10046300C203120968300105120080C2013003F291
:100473001206FE50EDC20312089520001690E68284
:10048300E030E704E020E1EF90E682E030E604E0CC
:0B04930020E0E412083E12095C80C764
:01049E00223B
:0B09330090E50DE030E402C322D32267
:1000800090E6B9E0700302016B14700302021424BD
:10009000FE70030202AA24FB7003020165147003C0
:1000A00002015F147003020153147003020159240A
:1000B00005600302031F12095E400302032B90E652
:1000C000BBE024FE603B14605624FD6016146040C3
:1000D00024067075E52390E6B3F0E52490E6B4F0CD
:1000E00002032B120933500FE52B90E6B3F0E52CF9
:1000F00090E6B4F002032B90E6A0E04401F0020386
:100100002BE52590E6B3F0E52690E6B4F002032B4C
:10011000E52790E6B3F0E52890E6B4F002032B90D3
:10012000E6BAE0FF12086AAA06A9077B01EA494B72
:10013000600DEE90E6B3F0EF90E6B4F002032B9082
:10014000E6A0E04401F002032B90E6A0E04401F0B9
:1001500002032B12091002032B12095002032B1267
:10016000094802032B1208FE02032B120960400308
:1001700002032B90E6B8E0247F602B14603C24023D
:10018000600302020AA200E433FF25E0FFA202E4BA
:10019000334F90E740F0E4A3F090E68AF090E68BCE
:1001A0007402F002032BE490E740F0A3F090E68A9B
:1001B000F090E68B7402F002032B90E6BCE0547ED4
:1001C000FF7E00E0D3948040067C007D0180047CAB
:1001D000007D00EC4EFEED4F243EF58274093EF5A5
:1001E00083E493FF3395E0FEEF24A1FFEE34E68F26
:1001F00082F583E0540190E740F0E4A3F090E68AB2
:10020000F090E68B7402F002032B90E6A0E044012C
:10021000F002032B120962400302032B90E6B8E0C0
:1002200024FE601D2402600302032B90E6BAE0B4B2
:100230000105C20002032B90E6A0E04401F0020396
:100240002B90E6BAE0705990E6BCE0547EFF7E0049
:10025000E0D3948040067C007D0180047C007D001A
:10026000EC4EFEED4F243EF58274093EF583E49397
:10027000FF3395E0FEEF24A1FFEE34E68F82F58395
:10028000E054FEF090E6BCE05480FF131313541FBB
:10029000FFE0540F2F90E683F0E04420F002032BA0
:1002A00090E6A0E04401F002032B120964507C9018
:1002B000E6B8E024FE60202402705B90E6BAE0B469
:1002C0000104D200806590E6BAE06402605D90E6C9
:1002D000A0E04401F0805490E6BCE0547EFF7E0034
:1002E000E0D3948040067C007D0180047C007D008A
:1002F000EC4EFEED4F243EF58274093EF583E49307
:10030000FF3395E0FEEF24A1FFEE34E68F82F58304
:10031000E04401F0801590E6A0E04401F0800C126A
:100320000966500790E6A0E04401F090E6A0E044A2
:0203300080F05B
:0103320022A8
:0300330002095867
:0409580053D8EF324F
:10049F0090E61074A0F090E611F000000090E612C4
:1004AF0074A2F000000090E61374A0F0000000901A
:1004BF00E61474E2F000000090E61574E0F000001E
:1004CF000090E60174E3F090E60B7403F000000077
:1004DF0090E6047480F00000007402F000000074D5
:1004EF0004F00000007406F00000007408F0000033
:1004FF0000E4F000000090E6497482F0000000F084
:10050F000000007484F0000000F000000090E61876
:10051F007419F000000090E619F000000090E61A40
:10052F00F000000090E61BF000000090E6027489D6
:10053F00F000000090E60374EFF000000090E6700A
:10054F00E04480F090E609743FF000000090E62050
:10055F007402F000000090E622F000000090E62404
:10056F00F000000090E626F0000000E490E621F095
:10057F0000000090E623F000000090E625F0000058
:10058F000090E627F000000090E63074C2F0000003
:10059F0000E490E631F000000090E63274C1F00004
:1005AF000000E490E633F000000090E6347442F06F
:1005BF00000000E490E635F000000090E63674414C
:0D05CF00F0000000E490E637F0000000228C
:01096800226C
:0206FE00D32205
:02095C00D322A4
:02095E00D322A2
:0809480090E6BAE0F51BD32292
:1008FE0090E740E51BF0E490E68AF090E68B04F07A
:02090E00D322F2
:0809500090E6BAE0F51AD3228B
:1009100090E740E51AF0E490E68AF090E68B04F068
:02092000D322E0
:02096000D322A0
:02096200D3229E
:02096400D3229C
:02096600D3229A
:1005DC00C0E0C083C082D2015391EF90E65D7401FC
:0805EC00F0D082D083D0E03290
:1008D200C0E0C083C0825391EF90E65D7404F0D013
:0608E20082D083D0E03259
:1008E800C0E0C083C0825391EF90E65D7402F0D0FF
:0608F80082D083D0E03243
:1007D900C0E0C083C082852925852A268526828591
:1007E9002583A37402F085212785222885288285FF
:1007F9002783A37407F05391EF90E65D7410F0D04E
:0608090082D083D0E03232
:1008BA00C0E0C083C082D2035391EF90E65D740812
:0808CA00F0D082D083D0E032AF
:10079C00C0E0C083C08290E680E030E72085212550
:1007AC00852226852682852583A37402F085292738
:1007BC00852A28852882852783A37407F05391EF17
:0D07CC0090E65D7420F0D082D083D0E03242
:01096900325B
:01096A00325A
:01096B003259
:01096C003258
:01096D003257
:01096E003256
:01096F003255
:010970003254
:010971003253
:010972003252
:010973003251
:010974003250
:01097500324F
:01097600324E
:01097700324D
:01097800324C
:01097900324B
:01097A00324A
:01097B003249
:01097C003248
:01097D003247
:01097E003246
:01097F003245
:010980003244
:010981003243
:010982003242
:010983003241
:010984003240
:01098500323F
:01098600323E
:01098700323D
:01098800323C
:01098900323B
:01098A00323A
:01098B003239
:01098C003238
:100700001201000200000040B404041000000102C5
:1007100000010A06000200000040010009022E004C
:1007200001010080320904000004FF0000000705F9
:10073000020200020007050402000200070586020B
:100740000002000705880200020009022E000101D4
:100750000080320904000004FF00000007050202C7
:100760004000000705040240000007058602400023
:100770000007058802400000040309041003430039
:100780007900700072006500730073000E0345006D
:0C0790005A002D005500530042000000EC
:10083E0090E682E030E004E020E60B90E682E030C5
:10084E00E119E030E71590E680E04401F07F147E78
:0C085E00001206B890E680E054FEF02284
:10080F0030040990E680E0440AF0800790E680E02B
:10081F004408F07FDC7E051206B890E65D74FFF0A9
:0F082F0090E65FF05391EF90E680E054F7F022EF
:02086A00A907DC
:10086C00AE2DAF2E8F828E83A3E064037017AD0183
:10087C0019ED7001228F828E83E07C002FFDEC3EFF
:08088C00FEAF0580DFE4FEFF72
:010894002241
:1008950090E682E044C0F090E681F04387010000D5
:0408A500000000222D
:1006B8008E188F1990E600E054187012E51924017D
:1006C800FFE43518C313F518EF13F519801590E6F4
:1006D80000E05418FFBF100BE51925E0F519E518DF
:1006E80033F518E5191519AE18700215184E60057E
:0606F8001208A980EE22A9
:1008A9007400F58690FDA57C05A3E582458370F962
:0108B900221C
:03004300020600B2
:03005300020600A2
:100600000205DC000208E8000208D2000208BA0075
:100610000207D90002079C000209690002096A006A
:1006200002096B0002096C0002096D0002096E00EC
:1006300002096F00020970000209710002097200CC
:100640000209730002096A000209740002097500B8
:100650000209760002097700020978000209790090
:1006600002097A0002096A0002096A0002096A00A6
:1006700002097B0002097C0002097D0002097E005C
:1006800002097F000209800002098100020982003C
:10069000020983000209840002098500020986001C
:1006A00002098700020988000209890002098A00FC
:0806B00002098B0002098C0015
:030000000205F402
:0C05F400787FE4F6D8FD75812E020333F9
:10092200EB9FF5F0EA9E42F0E99D42F0E89C45F02B
:0109320022A2
:00000001FF
